:020000040800F2
:10000000180800202D220008DD0F0008DF0F00086F
:10001000E30F0008E70F0008EB0F000800000000E6
:10002000000000000000000000000000EF0F0008CA
:10003000F10F000800000000F30F0008F50F0008A2
:1000400047220008472200084722000847220008EC
:1000500047220008472200084722000847220008DC
:1000600047220008472200084722000847220008CC
:1000700047220008472200084722000847220008BC
:1000800047220008472200084722000847220008AC
:10009000472200084722000847220008472200089C
:1000A000472200084722000847220008472200088C
:1000B000612000087B210008472200084722000831
:1000C000472200084722000847220008472200086C
:1000D00047220008B91400084722000847220008F8
:1000E000472200084722000847220008472200084C
:1000F000472200084722000847220008472200083C
:10010000472200084722000847220008472200082B
:10011000472200084722000847220008472200081B
:10012000472200084722000847220008472200080B
:1001300000F002F800F090F80AA090E8000C824469
:100140008344AAF10107DA4501D100F085F8AFF246
:10015000090EBAE80F0013F0010F18BFFB1A43F0A5
:10016000010318478C550000AC550000103A24BF1D
:1001700078C878C1FAD8520724BF30C830C144BF0C
:1001800004680C607047000000230024002500264E
:10019000103A28BF78C1FBD8520728BF30C148BFEA
:1001A0000B6070476E2903F0FB86702904F03D80D8
:1001B000662905F02F82652905F02C82672905F054
:1001C00029826129AFF3008003681B0A28BF41F030
:1001D0008001692903F0A886642903F0A5867529A2
:1001E00003F0A2866F2903F0CB87782904F00980F9
:1001F000E92903F06587E42903F06287F52903F014
:100200005F87EF2903F0C887F82904F008800368A6
:10021000DB0928BF41F08001632904F08A83732938
:1002200004F08F83E32904F09A83F32904F09F8379
:10023000002070471FB504F0EBFB040000200021F4
:1002400005F0D2F8401C60600020002105F0B6F8EF
:10025000E0601FBD10B510BD04F0ADFB1146FFF707
:10026000E9FF00F058F904F085FC03B4FFF7F2FF52
:1002700003BC03F001FD000010B5FA480068012836
:1002800074D1F9A1002001F02EF801F0A2F9F9A132
:10029000002001F028F801F0B8FB20B1F8A10020FF
:1002A00001F021F862E0F8A1002001F01CF8F84804
:1002B0004079401C0A2190FBF1F1F5484079401C3F
:1002C0000A2290FBF2F302FB130061F31F10F149C5
:1002D0008870EF48C0780A2190FBF1F1EC48C078B3
:1002E00090FBF2F302FB130061F31F10E949087160
:1002F000E74880780A2190FBF1F1E548807890FB8F
:10030000F2F302FB130061F31F10E2498860E0483A
:1003100040780A2190FBF1F1DD48407890FBF2F340
:1003200002FB130061F31F10DA49C860D848007857
:100330000A2190FBF1F1D648007890FBF2F302FB22
:10034000130061F31F10D3490861D1480079C870C8
:10035000084601F06BFCD0A1002000F0C4FF4FF470
:100360007A7003F0FFFC0020BE490860CD480068A9
:10037000012808D10020CB490860CB480068C04361
:10038000CA49C1F8A00110BD10B501F081FCC14AF5
:100390009078C21700EB12721211A0EB0212BD4B43
:1003A0009978CB1701EB13731B110A2404FB03226A
:1003B000BF4B1A60B74A1079C21700EB12721211C4
:1003C000A0EB0212B34B1979CB1701EB13731B117E
:1003D00004FB0322B74B1A60AE48C078B6490860E8
:1003E0000846006808B907200860AA4AD068C21702
:1003F00000EB12721211A0EB0212A64BD968CB17B8
:1004000001EB13731B110A2404FB0322AB4B1A608C
:10041000A04A1069C21700EB12721211A0EB02126F
:100420009C4B1969CB1701EB13731B1104FB0322BF
:10043000A34B1A60974A9068C21700EB1272121110
:10044000A0EB0212934B9968CB1701EB13731B11AE
:1004500004FB03229B4B1A60954800680A2190FB1D
:10046000F1F0303098490870914800680A2190FBFB
:10047000F1F201FB12003030934948708D4800685A
:100480000A2190FBF1F030308F49C870894800682C
:100490000A2190FBF1F201FB120030308A49087109
:1004A000854800783030C871184600680A2190FBF2
:1004B000F1F0303085490870184600680A2190FB39
:1004C000F1F201FB12003030804948707B4800682F
:1004D0000A2190FBF1F030307C49C8707748006801
:1004E0000A2190FBF1F201FB1200303077490871CC
:1004F000734800680A2190FBF1F03030734988712D
:100500006F4800680A2190FBF1F201FB12003030C5
:100510006E49C87110BD03F0A9FB00F019FF00F08F
:100520008AFE4FF4E13003F0B6FB1F2140F2712048
:1005300001F0F6FD42F22000564908801020887034
:100540000520C87025200871232088605920C860C4
:1005500055200861002054490860DDE050205C49C6
:1005600008700FE0FFF710FF5849002000F0BBFEB5
:10057000FFF782FE322003F0F5FB55480078401E5D
:1005800053490870524800780028EBDC5148006855
:100590000028E2D1C8204E4908701BE04C48007882
:1005A00000F0BFFE012003F0DDFB49480078072181
:1005B00090FBF1F201FB120038B9FFF7E5FEFFF7FF
:1005C0005BFE4249002000F08EFE41480078401E4C
:1005D0003F4908703E4800780028DFDC3A49002097
:1005E00000F081FE00203A4908700BE0384800789E
:1005F00000F097FE012003F0B5FB35480078401C61
:100600003349087032480078C828EFDB5F20304952
:10061000087009E0FFF730FE0A2003F0A3FB2C4826
:100620000078401E2A490870294800780028F1DC2B
:10063000C820274908700DE0FFF71EFE2448007807
:1006400000F06FFE012003F08DFB21480078401E72
:100650001F4908701E4800780028EDDC00201C4966
:10066000087055E0080000204E54505F43414C4351
:10067000000000004E54505F434F4E4E00000000FB
:100680004E54505F455252004E45545F474554000A
:10069000AC000020A401002054494D455F4745545B
:1006A0000000000004000020A001214200002142BF
:1006B00028000020240000202C0000203000002012
:1006C00034000020380000200C000020150000201D
:1006D000410000203C000020F848007800F021FE96
:1006E000012003F03FFBF5480078072190FBF1F271
:1006F00001FB120038B9FFF747FEFFF7BDFDF049D7
:10070000002000F0F0FDED480078401CEB49087037
:10071000EA480078C828DFDB20E72DE9F8434FF0EE
:100720000009E8A000680090E748006800287BD135
:100730000A2003F017FBE44800680028F7D1FF20E7
:1007400000F0EFFDE148006801281AD1E0A1002087
:1007500000F0C9FD4FF47A7003F004FB012080F330
:10076000138800BF00BFDD48006800F4E060DC498A
:100770000843001DD9490860BFF34F8F00BF00BF79
:10078000FEE7D8A1002000F0AEFD4FF47A7003F030
:10079000E9FA00BFCC4800680028FBD0DCE3CA4877
:1007A0000830006860B909F1010900BFC648083087
:1007B00000680028FAD0B9F1020F01DD4FF00009FE
:1007C000C148001D006860B9A9F1010900BFBE4819
:1007D000001D00680028FAD0B9F1000F01DA4FF0CF
:1007E0000209B9F1000F21D1C1A1002000F07BFD69
:1007F000B5480068D0B90A2003F0B4FAB2480068DE
:10080000A0B912E0BDA1002000F06DFD4FF47A7098
:1008100003F0A8FA00BFAC4800680028FBD0012014
:10082000AA490860BDE8F88397E3EBE7B9F1010F47
:100830007ED1B5A1002000F056FDA3480068002835
:10084000F6D10A2003F08EFA9F4800680028EFD105
:1008500000BF9D4800680028FBD0AE480468AE4841
:100860000568AE480768AE480668AE48D0F8008014
:100870009349002000F037FD3DE30A208F490870BE
:1008800032E00A2003F06EFA8F480830006848B959
:1008900000BF8D48083000680028FAD0641C172C6F
:1008A00000DD00248848001D006848B900BF864864
:1008B000001D00680028FAD0641E002C00DA1724FE
:1008C0000A2094FBF0F03030C0B28DF800000A200E
:1008D00094FBF0F100FB11403030C0B28DF8010004
:1008E0006946002000F0FFFC744801780078401E43
:1008F000724A10700029C4D10A201146087034E0F1
:100900000A2003F02FFA70480830006848B900BF89
:100910006D48083000680028FAD0641C172C00DDF0
:1009200000246948001D006858B900BF664800E00F
:10093000E2E2001D00680028F8D0641E002C00DAF6
:1009400017240A2094FBF0F03030C0B28DF800007C
:100950000A2094FBF0F100FB11403030C0B28DF85A
:10096000010058A1002000F0BEFC54480178007836
:10097000401E524A10700029C2D153480068002816
:100980007ED100BF504800680028FBD06946002097
:1009900000F0A9FCAEE20A204849087032E00A20C3
:1009A00003F0E0F948480830006848B900BF4648FD
:1009B000083000680028FAD06D1C3B2D00DD0025B2
:1009C0004148001D006848B900BF3F48001D00684D
:1009D0000028FAD06D1E002D00DA3B250A2095FB79
:1009E000F0F03030C0B28DF800000A2095FBF0F135
:1009F00000FB11503030C0B28DF801006946032071
:100A000000F071FC2D4801780078401E2B4A1070D0
:100A10000029C4D10A201146087034E00A2003F0EE
:100A2000A1F929480830006848B900BF26480830B5
:100A300000680028FAD06D1C3B2D00DD00252248FF
:100A4000001D006848B900BF1F48001D006800284D
:100A5000FAD06D1E002D00DA3B250A2095FBF0F040
:100A60003030C0B28DF800000A2095FBF0F100FB99
:100A700011503030C0B28DF8010012A1032000E007
:100A800039E200F030FC0D4801780078401E0B4A36
:100A900010700029C2D10C48006800287ED10A20BD
:100AA00003F060F9084800680028F7D11E4900F0FB
:100AB0001AFC1EE20A200149087068E0410000208B
:100AC0001500002020200000000121420800002025
:100AD00043414E43454C4544000000000CED00E00E
:100AE0000000FA053E4D454E552020200000000034
:100AF0003E4259205749464920000000574946497F
:100B0000494E4954000000003E42592048414E449D
:100B100020000000380000203000002028000020C5
:100B2000240000202C0000200C0000200A2003F0EC
:100B300019F9FB48006840B900BFF948006800286F
:100B4000FBD07F1C0C2F00DD0127F548001F00683B
:100B500048B900BFF248001F00680028FAD07F1E85
:100B6000012F00DA0C270A2097FBF0F03030C0B2DA
:100B70008DF800000A2097FBF0F100FB1170303077
:100B8000C0B28DF801006946002000F0ACFBE548DA
:100B900001780078401EE34A107000E0AAE10029C5
:100BA000C4D10A201146087031E00A2003F0DAF8B7
:100BB000DB48006840B900BFD94800680028FBD076
:100BC0007F1C0C2F00DD0127D548001F006848B9A5
:100BD00000BFD348001F00680028FAD07F1E012FF5
:100BE00000DA0C270A2097FBF0F03030C0B28DF805
:100BF00000000A2097FBF0F100FB11703030C0B20A
:100C00008DF80100AFF24411002000F06CFBC548E4
:100C100001780078401EC34A10700029C5D1C04831
:100C20000838006800287DD10A2003F09BF8BC48F2
:100C3000083800680028F6D1694600F054FB57E1F7
:100C40000A20B849087030E00A2003F08BF8B44855
:100C5000006840B900BFB24800680028FBD0761C8D
:100C60001F2E00DD0126AE48001F006848B900BFF6
:100C7000AB48001F00680028FAD0761E012E00DA6B
:100C80001F260A2096FBF0F03030C0B28DF800002D
:100C90000A2096FBF0F100FB11603030C0B28DF8F5
:100CA00001006946032000F01EFB9E480178007891
:100CB000401E9C4A10700029C6D10A2011460870B7
:100CC00033E00A2003F04EF89548006840B900BFB1
:100CD000934800680028FBD0761C1F2E00DD0126FB
:100CE0008F48001F006848B900BF8D48001F00688A
:100CF0000028FAD0761E012E00DA1F260A2096FB65
:100D0000F0F03030C0B28DF800000A2096FBF0F110
:100D100000FB11603030C0B28DF80100AFF25C21F1
:100D2000032000E0E5E000F0DEFA7E48017800787C
:100D3000401E7C4A10700029C3D1794808380068E9
:100D400000287DD10A2003F00DF8754808380068A6
:100D50000028F6D16946032000F0C5FAC7E00A2052
:100D6000704908702BE00A2002F0FCFF6C48006814
:100D700058B900BF6A4800680028FBD008F1010894
:100D8000B8F1070F01DD4FF001086548001F00684A
:100D900060B900BF6248001F00680028FAD0A8F1BF
:100DA0000108B8F1010F01DA4FF0070808F130002F
:100DB000C0B28DF800006946072000F094FA594847
:100DC00001780078401E574A10700029CBD10A20C4
:100DD000114608702CE00A2002F0C4FF5048006859
:100DE00058B900BF4E4800680028FBD008F1010840
:100DF000B8F1070F01DD4FF001084948001F0068F6
:100E000060B900BF4648001F00680028FAD0A8F16A
:100E10000108B8F1010F01DA4FF0070808F13000BE
:100E2000C0B28DF80000AFF26431072000F05BFA29
:100E30003C4801780078401E3A4A1070002900E0D2
:100E400056E0C8D1364808380068E8BB0A2002F0EE
:100E500089FF334808380068B0BB33A1002000F098
:100E600042FA0A2097FBF0F100FB117197FBF0F0BA
:100E700001EB00102F498870B8F1060F01DD4FF02B
:100E800000080A2098FBF0F100FB118198FBF0F0BC
:100E900001EB00102749C8700A2096FBF0F100FB17
:100EA000116196FBF0F001EB0010224908710A2055
:100EB00094FBF0F100FB114194FBF0F001EB00100A
:100EC0001C4988600A2000E011E095FBF0F100FB6E
:100ED000115195FBF0F001EB00101649C86008466F
:100EE00000F0A4FE4FF42F7002F03CFF9AE436E7C6
:100EF000A6E6DFE54FE5C0E4B9F1020F2CD10EA163
:100F0000002000F0F0F906480838006820BB0A20ED
:100F100002F028FF024808380068E8B91BE000002A
:100F2000080121424100002043414C434F564552A5
:100F300000000000A40100203E52455455524E20AE
:100F4000200000000A2002F00DFF00BF1B480068CF
:100F50000028FBD066E4F5E721E41848001D00688E
:100F600048BB0A2002F0FEFE1448001D006810BBBA
:100F700000BF1248001D00680028FAD0FF2000F0D2
:100F8000D0F90F48006801280AD100200C490860F8
:100F90000CA100F0A8F94FF47A7002F0E3FE0AE029
:100FA0000120074908600AA1002000F09CF94FF4D5
:100FB0007A7002F0D7FE00BF34E400000001214245
:100FC0003C0000204D4F44452020303100000000FF
:100FD0004D4F44452020303200000000704700BFD4
:100FE000FEE700BFFEE700BFFEE700BFFEE7704779
:100FF00070477047704700000CB5002001900090CA
:101000006C48006840F480306A49086000BF694855
:10101000006800F4003000900198401C0190009896
:1010200018B90198B0F5A06FF1D16248006800F4DA
:10103000003010B10120009001E0002000900098E5
:10104000012843D15C48006840F010005A4908600C
:101050000846006820F0030008600846006840F079
:10106000020008605348406852494860084640689A
:1010700048600846406840F4806048600846406820
:1010800020F47C1048600846406840F4E81048604E
:101090000846006840F08070086000BF454800685E
:1010A00000F000700028F9D04248406820F00300AA
:1010B000404948600846406840F00200486000BF70
:1010C0003C48406800F00C000828F9D10CBD10B570
:1010D000FFF792FF10BD10B53648006840F00100E0
:1010E000344908600846406834490840314948603E
:1010F00008460068324908402E49086008460068E2
:1011000020F4802008600846406820F4FE00486013
:101110004FF41F008860FFF7DAFF4FF000602949A5
:10112000086010BD10B5002100200022214B5B6833
:1011300003F00C0121B1042906D0082928D107E0C9
:10114000214B224C236027E01F4B204C236023E0DF
:10115000184B5B6803F47010164B5B6803F4803225
:10116000022303EB904022B9194B4343174C2360F1
:101170000DE0104B5B6803F4003323B1144B434381
:10118000124C236003E0104B4343104C236003E0F8
:101190000D4B0E4C236000BF00BF064B5B68C3F3D2
:1011A00003130C4CE15C094B1B68CB40074C2360DC
:1011B00010BD000000100240002002400000FFF8B7
:1011C000FFFFF6FE08ED00E000127A004400002068
:1011D00000093D004800002070B5044600251AE0D3
:1011E00004F0010018B101207A49086002E00020F3
:1011F0007849086000207749091F0860052002F03F
:10120000A1FD641001207449C1F89801052002F085
:1012100099FD681CC5B2082DE2DB70BD10B5002039
:101220006C4908390860E820FFF7D6FF01206A49B9
:10123000C1F8940110BD10B5002066490839086056
:10124000E020FFF7C9FF052002F08CFD0720FFF723
:10125000C3FF01206049C1F89401052002F082FD1E
:1012600000205C4908390860E420FFF7B5FF05203D
:1012700002F078FDC820FFF7AFFF01205649C1F802
:101280009401052002F06EFD10BD70B504460D46B8
:10129000002050490839086004F12001C8B2FFF766
:1012A0009BFF05F13001C8B2FFF796FF01204A49C4
:1012B000C1F89401FFF7B2FF70BD70B504460D464A
:1012C000002044490839086004F12001C8B2FFF742
:1012D00083FF2846FFF780FF01203F49C1F89401B2
:1012E000FFF79CFF70BD70B506460D46002406E072
:1012F000295DA219D0B2FFF7E0FF601CC4B22846F6
:1013000002F066FDA042F3D870BD10B5002405E0E0
:1013100010212046FFF7D1FF601CC4B2082CF7DB78
:1013200010BD10B5044600202A4908390860E420A1
:10133000FFF752FF0A2002F005FD2046FFF74CFFA1
:1013400001202549C1F894010A2002F0FBFC10BDE0
:1013500008B501210C2001F013FB01211F4801F009
:1013600024F94FF4FC70ADF8000010208DF8030054
:1013700003208DF802006946194801F045F84FF442
:101380004060ADF8000010208DF8030003208DF8B8
:1013900002006946134801F037F80720ADF8000055
:1013A00048208DF8030003208DF8020069460C48A0
:1013B00001F02AF8002007490C390860012006498D
:1013C000C1F88C01052002F0CDFC012001490C3947
:1013D000086008BD9C01214200002142000230004B
:1013E00000080140000C0140FE4A926942F480422C
:1013F000FC4B9A61FC4A126822F47F62FA4B1A6035
:101400001A46126842F40B621A60F74A14321268E4
:1014100042F4C062F44B14331A60F44A4243B2FB04
:10142000F1F2F34B1A8008221B1D1A8042F22C1293
:101430001A801A46128842F400521A801A461288FC
:1014400042F010021A80EB4A126842F020024FF07C
:10145000E023C3F804210023E74A1370704710B556
:10146000044600BF4021E248083802F0A5FB0128ED
:10147000F8D12146DE48083802F030FB10BD10B527
:10148000044603E014F8010BFFF7E9FF2078002879
:10149000F8D110BD0FB400B5A1B023A8009001A8E9
:1014A000009A229902F070FC0020009001A8FFF73A
:1014B000E6FF21B05DF814FBCD480838008800F045
:1014C000200058B1CA48001F0088C1B2CB4802783A
:1014D0000078401CC94B1870C9488154C44808386A
:1014E000008800F0100068B1C148001F008800218A
:1014F000C348C24A12788154C048007840F0800046
:10150000BE490870704770B504460025BB48007896
:1015100000F0800058B10020B849097801F07F013F
:10152000B74A50542146104602F040FC0546284672
:1015300070BD014642F2283201FB02F01DE0B14AC3
:10154000904204D94FF0E0235A61801A03E04FF033
:10155000E0225061002000224FF0E0239A61012236
:101560001A6100BF4FF0E022126902F48032002AB3
:10157000F8D000224FF0E0231A610028DFD1704735
:101580002DE9F04106460D461446002731469EA03F
:10159000FFF780FFD5B1CCB111E00A20FFF7C9FFFA
:1015A0009648007800F0800048B12846FFF7ABFF6E
:1015B00008B1002707E00127002090490870601E4D
:1015C00080B2041EE9D100BF04B901273846BDE846
:1015D000F08170B500250020884908708021884876
:1015E00002F015FC14228AA18AA0FFF7C9FF054664
:1015F000142287A18AA0FFF7C3FF0546002407E055
:1016000089A10020FFF76FFEBE20FFF792FF641C48
:101610000A2CF5DB092407E086A10020FFF763FE12
:10162000BE20FFF786FF641E002CF5DA4FF47A72B5
:1016300077A183A0FFF7A4FF054625B98AA1002062
:10164000FFF751FE03E08BA10020FFF74CFE4FF4A3
:1016500096726FA18AA0FFF793FF054670BDF0B5A3
:101660008DB06FF07F4640F26C7488A0FFF712FFD8
:101670000020624908708021614802F0C8FB6420A4
:10168000FFF757FF302101A802F0C1FB642260A1DF
:1016900089A0FFF775FFE3208DF8040000208DF886
:1016A000050006208DF80600EC208DF8070031209B
:1016B0008DF810004E208DF8110031208DF81200A9
:1016C00034208DF8130000204C49087080214C48CC
:1016D00002F09DFB002505E001A9485DFFF7BFFE74
:1016E000681CC5B2302DF7DB14E04448007800F0E8
:1016F000800078B14148007880383C2803DB002026
:101700003E4908700AE000203C49087080213C48AE
:1017100002F07DFB301EA6F10106E6D100BF16B92E
:1017200001200DB0F0BD364890F82600242830D1B5
:101730003348C07A800964490877314890F84600F8
:1017400088610846806900028861084680692C49E2
:1017500091F8471008435C49886108468069000297
:10176000886108468069264991F84810084356491F
:1017700088610846806900028861084680692049BE
:1017800091F8491008435049886100201B490870AE
:1017900004E00020194908700120C2E74A48007F90
:1017A000032801D10220BCE74748806900F5E140E9
:1017B00045498861084680694449086008460068D0
:1017C0004349B0FBF1F04149086008460068401CFD
:1017D0000860084600680721B0FBF1F201FB120027
:1017E000394977E0001002400408014040420F00F0
:1017F0000838014004E100E025E400E05800002042
:10180000240100200024F40025730D0A00000000CC
:101810004F4B000041542B43574D4F44453D33003F
:1018200041542B52535400004E54505F43414C439B
:1018300000000000574946495F434F4E000000003A
:1018400041542B43574A41503D226E6F76612035FB
:101850002070726F222C22373130343032313733DE
:101860003031313422000000574946495F45525219
:1018700000000000574946495F4F4B200000000020
:1018800041542B4349504D55583D300041542B4352
:10189000495053544152543D22554450222C223138
:1018A0002E636E2E706F6F6C2E6E74702E6F72675B
:1018B000222C3132330D0A0041542B4349505345F9
:1018C0004E443D3438000000FC0000208C00002015
:1018D0008051010081F8240000BFE11704EB9171F1
:1018E0008910A4EB810129B9642194FBF1F201FB79
:1018F000124131B94FF4C87194FBF1F201FB12416E
:1019000009B9584F00E0584F58488069B84200D292
:1019100007E056488069C01B54498861601C84B246
:10192000DBE700BF51480460E11704EB91718910B7
:10193000A4EB810129B9642194FBF1F201FB12416E
:1019400031B94FF4C87194FBF1F201FB124111B9A6
:101950001D2047494860002519E0444881694448F2
:1019600050F8250040F2A3225043B1EBC01F00D233
:101970000FE03E4881693E4850F8250040F2A3221E
:101980005043A1EBC01039498861681CC5B20C2DC9
:10199000E3DB00BF364850F82500344908620846AA
:1019A000456080693349B0FBF1F0401C2F498860E5
:1019B000084680692F49B0FBF1F201FB12002B4968
:1019C0008861084680694FF46161B0FBF1F02749F6
:1019D000C860084680694FF46161B0FBF1F201FB19
:1019E000120022498861084680693C21B0FBF1F071
:1019F0001E490861084680693C21B0FBF1F201FBF9
:101A000012001A49486100208BE670B50125642454
:101A100002E0FFF724FE054625B1201EA4F10101D6
:101A2000CCB2F6D10CB9012070BD10480078124933
:101A300088710E48007948710C48007AC8700B48CC
:101A4000007B88700948007C48700848007D087059
:101A5000064890F82400087108480078C8710020F2
:101A6000E2E700000085E2018033E101FC00002094
:101A70005C00002080510100AC0000208C000020A0
:101A800070B505460C4600F0DFF9D02000F040FAB2
:101A900028B9284600F03CFA204600F039FA00F058
:101AA000F7F970BD70B5044600F0CEF9D02000F013
:101AB0002FFA68B9204600F02BFA00F0C5F9D120C2
:101AC00000F026FA00F06EFA0546012000F0FCF95D
:101AD00000F0DEF9284670BD2DE9F04180460D4644
:101AE00016461F4627B300F0AFF9D02000F010FAD9
:101AF000D8B9404600F00CFA00F0A6F9D12000F069
:101B000007FA00240FE000F04DFA2870701EA04282
:101B100003D1012000F0D8F902E0002000F0D4F950
:101B20006D1C601CC4B2B442EDDB00F0B1F914E0EE
:101B300000F08AF9D02000F0EBF960B9404600F0DF
:101B4000E7F9002405E0287800F0E2F96D1C601C3C
:101B5000C4B2B442F7DB00F09BF9BDE8F0811CB5DC
:101B60000446ECB30123072269460020FFF7B4FFC7
:101B70009DF8000000F07F00AB490861084600694D
:101B8000AA490968884207D00120A9490860A648E7
:101B90000069A649086002E00020A54908609DF898
:101BA000010000F07F00A049C8609DF8020000F02D
:101BB0003F0088609DF8030000F00700C8709DF8A2
:101BC000040000F03F0008719DF8050000F01F00C0
:101BD00088709DF8060042F215010843924900E022
:101BE00001E0088021E09048007C8DF800008E48DC
:101BF000007B8DF801008C48007A8DF802008A483D
:101C0000C0788DF80300884800798DF80400864874
:101C100080788DF80500844800788DF80600002350
:101C2000072269461846FFF757FF1CBD10B504464A
:101C3000207C80490870207B4870207A8870E0788A
:101C4000C87020790871A0784871207888710023C5
:101C500007221846FFF740FF00210E20FFF710FF74
:101C600000210F20FFF70CFF10BD10B50F20FFF76C
:101C700019FF00F0800008B1012010BD0E20FFF711
:101C800011FF00F0800008B10120F6E70020F4E722
:101C900010B50120FFF763FF6348008A302101EB94
:101CA0002010654988716048007C00F00F003030DA
:101CB000C8715D488089302101EB20105E49C870F1
:101CC0005948007B00F00F003030087156480089F9
:101CD000302101EB2010584908705348007A00F079
:101CE0000F003030487050480079302101EB20104F
:101CF000524908724C48007900F00F0030304872A9
:101D000049488078302101EB20104C494871464801
:101D1000807800F00F00303088714348008830210F
:101D200001EB2030454908703F480088C0F303208C
:101D3000303048703C480088302101EB20103F498A
:101D400088703948007800F00F003030C87036488D
:101D5000C07800F00F003030C87210BD2DE9F0419E
:101D600004461120FFF79EFE05461220FFF79AFE5B
:101D7000861105F0800038B1E843C5B2F043401C3D
:101D8000C6B22D20207001E020202070304603F0E4
:101D900061FB80464FF07A5103F070FB074605F077
:101DA00070054FF47A7095FBF0F100FB115064213F
:101DB00090FBF1F030306070642095FBF0F100FB97
:101DC00011500A2190FBF1F03030A0700A2095FBF1
:101DD000F0F100FB11503030E0702E2020711849D6
:101DE000384603F04BFB804603F014FB3030607143
:101DF0001449384603F042FB804603F00BFBC0B2A7
:101E00000A2190FBF1F201FB12003030A0716078E2
:101E1000302801D120206070A078302801D1202006
:101E2000A070BDE8F0810000A401002000000020A7
:101E300004000020A5000020900000209800002051
:101E4000000020410000C84210B500F0C7F94FF46F
:101E500000616E4800F085FB022001F073FF4FF433
:101E600080616A4800F07DFB022001F06BFF4FF4B7
:101E70000061664800F077FB022001F063FF4FF439
:101E80008061624800F06FFB022001F05BFF10BD33
:101E900010B500F0A3F94FF400615C4800F063FB5B
:101EA000022001F04FFF4FF48061584800F05BFBC7
:101EB000022001F047FF4FF40061544800F051FB4D
:101EC000022001F03FFF10BD10B5044600F086F976
:101ED0002CB14FF400614D4800F043FB04E04FF497
:101EE00000614A4800F03FFB022001F02BFF4FF455
:101EF0008061464800F035FB022001F023FF4FF4DB
:101F00008061424800F02FFB022001F01BFF10BD52
:101F100070B50446002600F061F9002521E004F0C8
:101F2000800028B14FF40061384800F01AFB04E04B
:101F30004FF40061354800F016FB022001F002FF6B
:101F40004FF48061314800F00CFB022001F0FAFEF2
:101F50004FF480612D4800F006FB6006040E681CFB
:101F6000C5B2082DDBDB4FF40061284800F0F9FA18
:101F700000F048F9022001F0E5FE4FF480612348AB
:101F800000F0EFFA022001F0DDFE4FF400611F487F
:101F900000F0CDFA06434FF480611C4800F0E3FAEC
:101FA000304670BD70B500244FF40061174800F052
:101FB000D8FA00F027F900251EE06006040E022082
:101FC00001F0C0FE4FF48061104800F0CAFA022010
:101FD00001F0B8FE4FF400610C4800F0A8FA08B117
:101FE00044F001044FF48061084800F0BCFA02207C
:101FF00001F0A8FE681CC5B2082DDEDB4FF480613D
:10200000024800F0B0FA204670BD0000000C01400C
:102010006048C06940F001005E49C86141F61F4058
:102020008904088542F20F7088850846808A40F04E
:10203000010088820846808940F0010088810846B6
:10204000008840F0010008805348006840F080504C
:102050004FF0E021C1F80001202150480170704785
:102060004FF08040008A00F00100002853D04C4817
:102070000078401C4A490870084600783C284AD13C
:102080000020087008464078401C48700846407898
:102090003C2840D10020487008468078401C887059
:1020A00008468078182836D101203E490870002063
:1020B0003B4988700846C078401CC8700846C07903
:1020C000401CC8710846C079072190FBF1F201FB62
:1020D0001200334908710846C0783349096A8842BA
:1020E00019DD01202E49C87008464079401C48710E
:1020F00008464079401E2D4951F820002A490862BF
:10210000274840790B2806DD0020254948710846FC
:102110008079401C887100204FF080410882704710
:102120007FB505460C460121022000F036FCADF8D3
:102130000850ADF804400020ADF80A00ADF80600E4
:1021400001A91B4800F054FD01221146184801F076
:10215000C6F81D208DF8000000208DF80100032036
:102160008DF8020001208DF80300684600F083F826
:1021700001210F4801F098F87FBD10B501210C48EE
:1021800001F05BFB28B1FEF7C8FA0121084801F015
:1021900065FB10BD0010024000E100E01CE400E01F
:1021A000AC000020E4000020FC000020B40000206F
:1021B0000004004008B50121082000F0E1FB4FF4C5
:1021C0004060ADF8000010208DF8030003208DF86A
:1021D00002006946144800F017F908BD08B501214E
:1021E000082000F0CDFB4FF40060ADF80000102097
:1021F0008DF8030003208DF8020069460A4800F0BC
:1022000003F908BD08B50121082000F0B9FB4FF41F
:102210000060ADF8000048208DF8030069460248D0
:1022200000F0F2F808BD0000000C014009488047AA
:1022300009480047FEE7FEE7FEE7FEE7FEE7FEE7A8
:10224000FEE7FEE7FEE7FEE704480549054A064BC0
:1022500070470000D7100008310100081802002064
:1022600018080020180400201804002031490143F8
:10227000314A1160704770B5002100230F22C478E5
:1022800004B32D4C246804F4E064C4F5E064210A2E
:10229000C1F10403CA40447804FA03F1847814407D
:1022A00021430901254C0678A155047804F01F0547
:1022B0000124AC4005786D11AD0005F1E025C5F8AD
:1022C000004109E0047804F01F050124AC401C4DD6
:1022D0000678761145F8264070BD1A4A0A40024336
:1022E000154B1B1F1A60704739B1134A121D126833
:1022F0000243114B1B1D1A6006E00F4A121D1268A3
:1023000082430D4B1B1D1A607047042808D14FF003
:10231000E021096941F004014FF0E022116107E07A
:102320004FF0E021096921F004014FF0E022116132
:10233000704700000000FA050CED00E000E400E04A
:1023400080E100E080FFFF1F10B50446CC488442C6
:1023500008D10121042000F02DFB0021042000F011
:1023600029FB46E0C748844208D10121082000F03B
:1023700021FB0021082000F01DFB3AE0C248844206
:1023800008D10121102000F015FB0021102000F0E1
:1023900011FB2EE0BD48844208D10121202000F02D
:1023A00009FB0021202000F005FB22E0B848844210
:1023B00008D10121402000F0FDFA0021402000F06A
:1023C000F9FA16E0B348844208D10121802000F0D8
:1023D000F1FA0021802000F0EDFA0AE0AE488442D4
:1023E00007D10121801500F0E5FA0021A01500F0C9
:1023F000E1FA10BD10B50121084600F0DBFA00211A
:10240000012000F0D7FA10BD2DE9F0410246002569
:102410000026002000230024002791F803C00CF0C0
:102420000F0591F803C00CF0100CBCF1000F03D0A5
:1024300091F802C04CEA050591F800C0BCF1000F0C
:1024400031D0146800202BE04FF0010C0CFA00F39F
:10245000B1F800C00CEA03069E4220D183004FF081
:102460000F0C0CFA03F7BC4305FA03FC4CEA040416
:1024700091F803C0BCF1280F06D14FF0010C0CFA03
:1024800000FCC2F814C00AE091F803C0BCF1480F88
:1024900005D14FF0010C0CFA00FCC2F810C0401C32
:1024A0000828D1D31460B1F800C0BCF1FF0F34DDAF
:1024B000546800202EE000F1080C4FF0010808FAE3
:1024C0000CF3B1F800C00CEA03069E4221D1830050
:1024D0004FF00F0C0CFA03F7BC4305FA03FC4CEA6F
:1024E000040491F803C0BCF1280F05D100F1080CD9
:1024F00008FA0CF8C2F8148091F803C0BCF1480F38
:1025000007D100F1080C4FF0010808FA0CF8C2F8E6
:102510001080401C0828CED35460BDE8F0814FF6EF
:10252000FF710180022181700421C1707047024651
:10253000002093680B400BB1012000E000207047A1
:102540000146886880B2704702460020D3680B407D
:102550000BB1012000E0002070470146C86880B23E
:10256000704701617047416170470AB1016100E045
:1025700041617047C16070474FF480320A43826105
:102580008161826182698269704702460020434B03
:1025900018684FF68073184040EA021008433F4B1A
:1025A000186070473E49C8617047F0B50A4600237D
:1025B00000240021002500F00046B6F1004F02D1B2
:1025C000364EF16901E0354E7168C0F3034583B2C0
:1025D00000F44016B6F5401F08D121F070612F4E6F
:1025E000766826F070662D4F7E6012E000F480164B
:1025F000B6F5801F06D1032606FA05F4A14341F083
:10260000706106E0460D360103FA06F6B14341F06B
:10261000706122B1460D360103FA06F6314300F02F
:102620000046B6F1004F02D11C4EF16101E01B4E95
:102630007160F0BD30B500228B071C0F0F2303FA29
:1026400004F2164B08338C1053F824309343134C88
:1026500008348D1044F8253023468C1053F824306C
:102660008C07240F00FA04F423430C4C08348D101B
:1026700044F8253030BD0A49DC310860704700005D
:1026800000080140000C014000100140001401400E
:1026900000180140001C01400020014000000140E2
:1026A00000002042DF48006840F00100DD4908607A
:1026B00008464068DC490840DA4948600846006836
:1026C000DA490840D74908600846006820F48020AD
:1026D00008600846406820F4FE0048604FF41F0080
:1026E00088607047CF49096821F48031CD4A116074
:1026F0001146096821F480211160B0F5803F03D0B4
:10270000B0F5802F0ED106E0C649096841F480314A
:10271000C44A116007E0C349096841F4A021C14AD5
:10272000116000E000BF00BF704710B501460022F5
:10273000002300204A11012A02D1BA4C236806E086
:10274000022A02D1B74C236A01E0B64C636A01F059
:102750001F02012494401C400CB1012000E0002025
:1027600010BD38B5002000900024002500BF3120A6
:10277000FFF7DBFF05460098401C00900098B0F57D
:10278000A06F01D0002DF2D03120FFF7CEFF08B1AD
:10279000012400E00024204638BD01460020A14A63
:1027A000106820F0F80040EAC10010607047A049AE
:1027B00008607047024600209A4B586820F47C104D
:1027C00042EA01031843974B5860704798490866DE
:1027D000704701460020934A506820F003000843E8
:1027E000506070478F48406800F00C007047014609
:1027F00000208C4A506820F0F00008435060704779
:1028000001460020874A506820F4E0600843506089
:10281000704701460020834A506820F4605040EA27
:10282000C1005060704729B17E4A527A02437D4B05
:102830005A7204E07B4A527A82437A4B5A7270474A
:102840007B49D8310860704701460020754A5068BE
:1028500020F440400843506070470021714A203204
:102860001170704A82F82010012802D004280AD181
:1028700004E001216B4A2032117005E00521694A0C
:102880002032117000E000BF00BF70476949086046
:1028900070476449096A0143624A11627047654999
:1028A00044390860704730B500210022002400231D
:1028B0005C4D6D6805F00C0121B1042905D0082993
:1028C00023D105E05C4D056022E05B4D05601FE013
:1028D000544D6D6805F47012524D6D6805F48034E6
:1028E000022505EB92421CB9544D554305600BE09F
:1028F0004C4D6D6805F400351DB1504D55430560D4
:1029000002E04D4D5543056002E04B4D056000BFB0
:1029100000BF444D6D6805F0F0010909484D6B5C3E
:102920000568DD4045603F4D6D6805F4E061090ACA
:10293000434D6B5C4568DD4085603A4D6D6805F43C
:102940006051C90A3E4D6B5C4568DD40C560354D40
:102950006D6805F44041890B3A4D6B5CC568B5FB69
:10296000F3F5056130BD29B12E4A526902432D4B62
:102970005A6104E02B4A526982432A4B5A617047DC
:1029800029B1284A92690243264B9A6104E0254AFC
:1029900092698243234B9A61704729B1214AD269D7
:1029A0000243204BDA6104E01E4AD26982431D4B88
:1029B000DA61704729B11B4AD2680243194BDA60C9
:1029C00004E0184AD2688243164BDA60704729B196
:1029D000144A12690243134B1A6104E0114A126946
:1029E0008243104B1A6170471249403908607047A2
:1029F0000F49C86470470B49C87170470948406A5D
:102A000040F0807007494862704701460020054A3F
:102A100092680A400AB1012000E000207047014995
:102A200088727047001002400000FFF8FFFFF6FEBA
:102A3000000042428004424200127A0000093D0038
:102A4000E5000020F500002010B50446FE48844251
:102A500008D10121C014FFF7ADFF0021E014FFF7FA
:102A6000A9FFC4E0B4F1804F08D101210846FFF767
:102A7000AEFF00210120FFF7AAFFB8E0F34884422F
:102A800008D101210220FFF7A2FF00210220FFF759
:102A90009EFFACE0EE48844208D101210420FFF7FC
:102AA00096FF00210420FFF792FFA0E0E94884424E
:102AB00008D101210820FFF78AFF00210820FFF735
:102AC00086FF94E0E448844208D101211020FFF7FA
:102AD0007EFF00211020FFF77AFF88E0DF48844264
:102AE00008D101212020FFF772FF00212020FFF7ED
:102AF0006EFF7CE0DA48844208D101214014FFF7E0
:102B000059FF00216014FFF755FF70E0D54884425B
:102B100009D10121C804FFF74DFF00214FF4002027
:102B2000FFF748FF63E0D048844209D1012108053E
:102B3000FFF740FF00214FF48010FFF73BFF56E006
:102B4000CA48844209D101214805FFF733FF00211B
:102B50004FF40010FFF72EFF49E0C548844208D12A
:102B600001214020FFF733FF00214020FFF72FFF16
:102B70003DE0C048844208D101218020FFF727FFB3
:102B800000218020FFF723FF31E0BB48844208D1B9
:102B900001218015FFF71BFF0021A015FFF717FF8C
:102BA00025E0B648844209D101210804FFF702FF5D
:102BB00000214FF48030FFF7FDFE18E0B04884425A
:102BC00009D101214804FFF7F5FE00214FF4003040
:102BD000FFF7F0FE0BE0AB48844208D101218804E6
:102BE000FFF7E8FE00214FF48020FFF7E3FE10BD61
:102BF00000220288944B98420ED0994B98420BD0F9
:102C0000B0F1804F08D0914B984205D0904B98423C
:102C100002D0904B984204D14FF68F731A404B88E4
:102C20001A438D4B984207D08C4B984204D04FF6F4
:102C3000FF431A40CB881A4302808B8883850B8818
:102C40000385814B98420BD0854B984208D08B4B23
:102C5000984205D08A4B984202D08A4B984201D1C3
:102C60000B7A038601238382704770B5002400220B
:102C70000023058C4FF6FE7635400584028C838850
:102C8000048B4FF68F752C40B51E2C400D882C43BD
:102C9000751E2A400D892A434D882A436A4DA84251
:102CA0000BD06F4DA84208D0744DA84205D0744D8A
:102CB000A84202D0734DA84213D14FF6F7752A40AF
:102CC0004D892A434FF6FB752A408D882A434FF6DB
:102CD000FF652B404FF6FF552B408D892B43CD8947
:102CE0002B4383800483CD888586028470BD70B5B4
:102CF000002400220023058C4FF6EF763540058432
:102D0000028C8388048B48F6FF752C404FF6FF45F4
:102D10002C400D884FF6FF7606EA05252C434FF62A
:102D2000DF752A400D8906EA05152A434D8806EA13
:102D300005152A43444DA84202D0494DA8421DD151
:102D40004FF67F752A404D894FF6FF7606EA051546
:102D50002A434FF6BF752A408D8806EA05152A4397
:102D60004FF6FF352B404FF2FF752B408D8906EA59
:102D700085052B43CD8906EA85052B438380048393
:102D8000CD880587028470BD70B500240022002321
:102D9000058C4FF6FF6635400584028C8388848B52
:102DA0004FF68F752C404FF6FC752C400D882C4348
:102DB0004FF6FF552A400D894FF6FF7606EA0525A6
:102DC0002A434D8806EA05252A431F4DA84202D012
:102DD000234DA8421DD14FF2FF752A404D894FF671
:102DE000FF7606EA05252A434FF6FF352A408D88EF
:102DF00006EA05252A434EF6FF752B404DF6FF7572
:102E00002B408D8906EA05152B43CD8906EA051569
:102E10002B4383808483CD888587028470BD70B501
:102E2000002200230024058C4EF6FF7635400584F1
:102E3000038C8488828B48F6FF752A404FF6FF4545
:102E40002A400D8820E00000002C014000040040D2
:102E500000080040000C004000100040001400403A
:102E600000340140004C014000500140005401403A
:102E700000180040001C00400020004000400140BD
:102E800000440140004801404FF6FF7606EA052560
:102E90002A434DF6FF752B400D8906EA05352B4375
:102EA0004D8806EA05352B43FA4DA84202D0FA4D6B
:102EB000A84208D14BF6FF752C408D894FF6FF765E
:102EC00006EA85152C4384808283CD88A0F8405083
:102ED000038470BD828B4FF2FF331A408283828B52
:102EE0004FF6FF7303EA01231A4382837047F0B55C
:102EF0000C461546002200210026078C4EF6FF7C6A
:102F000007EA0C070784828B018C4FF6FF7707EAEC
:102F1000043640F6FF473A404FF6FF7707EA0527A9
:102F20003A434FF6FF7707EA03373A43D94FB8429F
:102F30000ED0D94FB8420BD0B0F1804F08D0D74F48
:102F4000B84205D0D64FB84202D0D64FB84206D1CB
:102F50004DF6FF77394046F48057394305E047F690
:102F6000FF57394044F48057394382830184F0BDD0
:102F7000828B4FF6F3731A408283828B0A438283DB
:102F80007047F0B50C461546002200210026078C3C
:102F90004FF6FF6C07EA0C070784828B018C4FF613
:102FA000FF7707EA04264FF60C773A404FF6FF7793
:102FB00007EA03172F433A43B64FB8420ED0B64F35
:102FC000B8420BD0B0F1804F08D0B44FB84205D012
:102FD000B34FB84202D0B34FB84206D14FF6FF57B5
:102FE000394046F48077394305E04FF2FF573940C6
:102FF00044F48077394382830184F0BD028B4FF221
:10300000FF331A400283028B4FF6FF7303EA01235A
:103010001A4302837047F0B50C4615460022002182
:103020000026078C4FF6EF7C07EA0C070784028B1B
:10303000018C4FF6FF7707EA041640F6FF473A4047
:103040004FF6FF7707EA03373A434FF6FF7707EA71
:1030500005273A438F4FB8420ED08F4FB8420BD05E
:10306000B0F1804F08D08D4FB84205D08C4FB84298
:1030700002D08C4FB84206D14FF6DF77394046F088
:103080001007394305E04FF65F77394044F01007E9
:10309000394302830184F0BD028B4FF6F3731A406B
:1030A0000283028B0A4302837047F0B50C46154633
:1030B00000220021068C4FF6FE773E400684028BEC
:1030C000018C4FF60C7632407E1C06EA03162E4326
:1030D0003243704EB0420ED06F4EB0420BD0B0F1C2
:1030E000804F08D06D4EB04205D06D4EB04202D038
:1030F0006C4EB04206D14FF6FD76314044F00106E9
:10310000314305E04FF6F576314044F00106314396
:1031100002830184F0BD70B505460C465D488542CA
:103120000ED05D4885420BD0B5F1804F08D05B488A
:10313000854205D05A48854202D05A48854200D17E
:1031400000E000BF208850B92389A2886188284602
:10315000FFF7ABFFE1882846FFF79EFF25E02088B8
:1031600004280AD12389A28861882846FFF753FFE3
:10317000E1882846FFF742FF17E0208808280AD197
:103180002389A28861882846FFF7FBFEE18828464C
:10319000FFF7EEFE09E02389A28861882846FFF741
:1031A000A6FEE1882846FFF795FE70BD2DE9F041A7
:1031B00005460C4600260127608808B9022600E073
:1031C0000026A088012801D1022700E001272088DD
:1031D000A0B92389A28861882846FFF766FFE188A5
:1031E0002846FFF759FF23893A4631462846FFF71C
:1031F00012FFE1882846FFF701FF13E02389A28828
:1032000061882846FFF707FFE1882846FFF7F6FEAA
:1032100023893A4631462846FFF747FFE18828468A
:10322000FFF73AFFBDE8F0810A884B881A438B8884
:103230001A43CB881A430B891A434B891A438B894B
:103240001A43A0F8442070474FF6FF718180002197
:103250000180C1804180017270470021018041805E
:103260008180C180018141818181C18170470021BC
:1032700001804180012181800021C180018170474E
:103280000021018041808180C18001814181818153
:1032900070470000002C0140003401400004004051
:1032A00000080040000C004021B1028842F00102F9
:1032B000028004E002884FF6FE731A4002807047D5
:1032C00031B1B0F8442042F40042A0F8442005E0B7
:1032D000B0F84420C2F30E02A0F8442070471AB19F
:1032E00083890B43838102E083898B438381704709
:1032F0008182704741EA0203A0F8483070471AB152
:1033000083890B43838102E083898B4383817047E8
:1033100001894FF6F8721140018170470A46002179
:1033200001894FF68F73194011430181704730B501
:1033300004460D4629462046FFF7F0FF208940F05D
:103340000700208130BD2DE9F04104460D461646A8
:103350001F46602D06D13B46012231462046FFF72D
:103360005AFE05E03B46012231462046FFF79DFE0E
:1033700029462046FFF7D2FF208940F00700208130
:10338000BDE8F08130B50C4600210189C9B24FF685
:10339000FF7505EA0325154325432943018130BD07
:1033A0002DE9F04105460E4617469846002443464F
:1033B0003A4631462846FFF7E5FF2C894FF6F8706C
:1033C000044044F007044FF68F70044044F070044A
:1033D0002C81BDE8F081F0B504460D4616461F4627
:1033E0003B46324629462046FFF7CCFF208940F471
:1033F00080402081F0BD0185828270470A4600210D
:1034000001884FF68F731940114301807047F0B562
:103410000C4615461E460021002200230189028B1E
:10342000038C4FF6F877394021434FF6FC473A407A
:1034300040F201173A434FF6DD773B404FF6FF77F6
:1034400007EA06172F433B43018102830384F0BD43
:103450000A460021018B4FF68F73194011430183F7
:1034600070470A460021018B48F6FF7319404FF65A
:10347000FF7303EA02231943018370470A460021C0
:10348000818B4FF68F7319401143818370470A4631
:103490000021818B48F6FF7319404FF6FF7303EA52
:1034A000022319438183704721B1028842F08002D0
:1034B000028004E002884FF67F731A400280704752
:1034C00021B1828842F00402828004E082884FF6B3
:1034D000FB731A408280704721B1828842F0080253
:1034E000828004E082884FF6F7731A40828070472A
:1034F00021B1828842F00102828004E082884FF686
:10350000FE731A40828070470A460021018B4FF6F5
:10351000F77319401143018370470A460021018B5C
:103520004FF2FF7319404FF6FF7303EA022319436A
:10353000018370470A460021818B4FF6F7731940CB
:103540001143818370470A460021818B4FF2FF733C
:1035500019404FF6FF7303EA022319438183704732
:103560000A460021018B4FF6FB731940114301837A
:1035700070470A460021018B4FF6FF3319404FF682
:10358000FF7303EA02231943018370470A460021AF
:10359000818B4FF6FB7319401143818370470A46B4
:1035A0000021818B4FF6FF3319404FF6FF7303EA7A
:1035B00002231943818370470A460021018B4FF68D
:1035C0007F7319401143018370470A460021018B24
:1035D000C1F30E014FF6FF7303EA0223194301837F
:1035E00070470A460021818B4FF67F7319401143C3
:1035F000818370470A460021818BC1F30E014FF68B
:10360000FF7303EA02231943818370470A460021AE
:10361000018C4FF6FD7319401143018470470A462F
:103620000021018C4FF6F773194011430184704754
:103630000A460021018C4FF6DF7319404FF6FF73E5
:1036400003EA02131943018470470A460021018CE2
:103650004FF67F7319404FF6FF7303EA02131943C5
:10366000018470470A460021018C4FF6FF53194030
:103670004FF6FF7303EA02231943018470470A4699
:103680000021018C4FF2FF7319404FF6FF7303EADC
:1036900002231943018470470A460021018C4DF62C
:1036A000FF7319404FF6FF7303EA02331943018495
:1036B000704730B5002301248C40A3B2048C9C4396
:1036C0000484048C02FA01F5ADB22C43048430BDAD
:1036D00030B5002304248C40A3B2048C9C430484A2
:1036E000048C02FA01F5ADB22C43048430BD70B5F0
:1036F0000346002000241846183001258D40ACB246
:103700001D8CA5431D8409B1082909D100EB610076
:10371000056825F0700505600568154305600EE035
:103720000D1FC5F34E052844056825F4E0450560E6
:1037300005684FF6FF7606EA02263543056070BD40
:1037400021B1028842F00202028004E002884FF6B2
:10375000FD731A400280704721B1028842F00402D2
:10376000028004E002884FF6FB731A400280704723
:1037700021B1828842F08002828004E082884FF684
:103780007F731A408280704702884FF6F7731A40A1
:10379000028002880A430280704782884FF68F7346
:1037A0001A40828082880A438280704702894FF6DD
:1037B000F8731A40028102890A4302817047028924
:1037C0004FF67F731A40028102890A4302817047D3
:1037D0008184704781857047818670470187704773
:1037E00081877047A0F84010704702884FF6FF436A
:1037F0001A40028002880A43028070470146888E80
:1038000070470146088F70470146888F7047014610
:10381000B1F8400070470146888C70470146088D1A
:10382000704702460020138A0B400BB1012000E0D4
:1038300000207047CA430282704730B5024600201C
:1038400000230024158A05EA0103958905EA01048D
:1038500013B10CB1012000E0002030BDCA43028248
:103860007047000010B50446FB48844209D101218D
:103870008803FFF79FF800214FF48040FFF79AF884
:1038800032E0F648844209D101214804FFF79FF84D
:1038900000214FF40030FFF79AF825E0F048844209
:1038A00009D101218804FFF792F800214FF480200C
:1038B000FFF78DF818E0EB48844209D10121C804D4
:1038C000FFF785F800214FF40020FFF780F80BE0A8
:1038D000E548844208D101210805FFF778F8002166
:1038E0004FF48010FFF773F810BD2DE9F04786B054
:1038F00005460E460024A24600BFA1460027B08917
:1039000000B100BF2F462C8A4CF6FF700440F088AF
:1039100004432C82AC894EF6F3100440B088318900
:103920000843718908430443AC81AC8A4FF6FF40D9
:103930000440B0890443AC8201A8FEF7B4FFC64836
:10394000874202D1DDF810A001E0DDF80CA0A889C3
:1039500000F4004040B10AEBCA0000EB0A103168E5
:103960004900B0FBF1F807E00AEBCA0000EB0A10CF
:1039700031688900B0FBF1F86420B8FBF0F0040175
:103980002009642101FB1089A88900F4004040B19E
:10399000322000EBC900B0FBF1F000F00700044357
:1039A00008E0322000EB09106421B0FBF1F000F0D8
:1039B0000F0004432C8106B0BDE8F0874FF4165188
:1039C000016000218180C18001810C2141810021A1
:1039D0008181704710B502460020108A4FF2FF0324
:1039E00018400B884C8823438C882343CC8823437E
:1039F0001843108210BD0021018041808180C18068
:103A0000704721B1828942F40052828104E08289A8
:103A10004DF6FF731A4082817047F0B503460024CB
:103A200000260025002040F66A17B94200D100BFE9
:103A30001846C1F3421401F01F06012707FA06F5E4
:103A4000012C01D10C3004E0022C01D1103000E037
:103A500014301AB107682F43076002E00768AF43CC
:103A60000760F0BD1AB1838A0B43838202E0838A28
:103A70008B4383827047028A4FF6F0731A400282AA
:103A8000028A0A430282704782894FF2FF731A400A
:103A9000828182890A438281704721B1828942F002
:103AA0000202828104E082894FF6FD731A4082810E
:103AB0007047028A4FF6DF731A400282028A0A4375
:103AC0000282704721B1028A42F48042028204E0FD
:103AD000028A4BF6FF731A4002827047C1F3080254
:103AE0008280704701468888C0F30800704781894A
:103AF00041F0010181817047028BD2B20283028BB7
:103B000042EA012202837047028B02F47F42028361
:103B1000028B0A430283704721B1828A42F020025D
:103B2000828204E0828A4FF6DF731A4082827047F5
:103B300021B1828A42F01002828204E0828A4FF62A
:103B4000EF731A408282704721B1828A42F00802E4
:103B5000828204E0828A4FF6F7731A4082827047AD
:103B600021B1828942F40042828103E08289C2F35A
:103B70000E028281704721B1828A42F40062828201
:103B800004E0828A4FF2FF731A4082827047828A71
:103B90004FF6FB731A408282828A0A438282704700
:103BA00021B1828A42F00202828204E0828A4FF6C8
:103BB000FD731A408282704702460020B1F5007FF3
:103BC00000D100BF13880B400BB1012000E00020A2
:103BD000704701F40072B2F5007F00D100BFCA4304
:103BE0000280704770B502460024002300250020A3
:103BF00040F66A16B14200D100BFC1F3421501F090
:103C00001F03012606FA03F3012D02D196893340E2
:103C100006E0022D02D1168A334001E0968A334035
:103C20000C12012606FA04F41688344013B10CB1C4
:103C3000012000E0002070BD10B50022002340F6F6
:103C40006A14A14200D100BF0A1201249440A3B219
:103C5000DC43048010BD00000038014000440040F7
:103C600000480040004C00400050004010B54FF4A8
:103C7000A060FEF7FBFA10BD014600BF704700BF11
:103C80002B4A128802F04002002AF9D0C2B2284B17
:103C90001B1D1A80704710B586B00446012144F2FE
:103CA0000400FEF76DFE4FF40070ADF81400032021
:103CB0008DF8160018208DF8170005A91D48FEF78D
:103CC000A3FB4FF48060ADF8140004208DF81700BA
:103CD00005A91848FEF798FB25208DF80000032061
:103CE0008DF801008DF8020001208DF80300684670
:103CF000FEF7C1FA01940020ADF80800ADF80A0003
:103D0000ADF80C00ADF810000C20ADF80E0001A9C4
:103D10000748FFF7EAFD012240F225510448FFF76A
:103D20007CFE01210248FFF76CFE06B010BD0000CA
:103D3000003801400008014010B56FF00400FEF7A4
:103D4000E4FA10BD09E0082100BF0A1EA1F101013B
:103D5000FBD100BF00BF00BF00BF021EA0F10100E9
:103D6000F1D17047002107E041F60E7100BF0A1E35
:103D7000A1F1010399B2FAD1021EA0F1010398B298
:103D8000F2D17047704700001CB50C46064B7B44CF
:103D900069460090204600F01CF904460020694660
:103DA00000F02AF920461CBD6702000030B5054628
:103DB0000B462A4613F8014B12F8010B08B1A0423A
:103DC000F8D01CB1002802D06D1CF1E7284630BDA8
:103DD00010B5431C02E010F8011B71B18107FAD144
:103DE0004FF0013202C88C1A8C4314EAC211F9D088
:103DF000C01A0A0603D0C01E10BDC01A10BD0A04A6
:103E000001D0801E10BD0902FCD0401E10BD4FF035
:103E1000000200B5134694469646203922BFA0E81A
:103E20000C50A0E80C50B1F12001BFF4F7AF090726
:103E300028BFA0E80C5048BF0CC05DF804EB890017
:103E400028BF40F8042B08BF704748BF20F8022B5A
:103E500011F0804F18BF00F8012B70477047704772
:103E60007047704770B5044685690068C10601D582
:103E7000302600E02026C00707D070BDD4E901211C
:103E800030469047206A401C20626D1EF6D570BDFA
:103E900070B5044685690078C00707D170BDD4E9C4
:103EA000012120209047206A401C20626D1EF6D51B
:103EB00070BD09684A0501D540B27047C905FCD5F7
:103EC00000B2704709684A0501D5C0B27047C905FC
:103ED000FCD580B2704770B50C460546012A05D066
:103EE0002878800600D5EA69002302E0012305E076
:103EF0005B1C934202D2E05C0028F9D1A869E61865
:103F0000C01AA861286A184428622846FFF7AAFF49
:103F100004E0D5E9012114F8010B9047B442F8D32D
:103F20002846FFF7B5FF70BD2DE9F0410646002495
:103F300010687529314616A510D0FFF7BAFF002882
:103F400002DA404213A507E031688A0701D512A5BD
:103F500002E0490704D511A5012401E0FFF7B2FFF3
:103F600000210A2206F1240709E0B0FBF2FCB0FBB5
:103F7000F2F302FB1C00303078541846491C00282C
:103F8000F3D123462A463046BDE8F04100F061BA3D
:103F9000000000002D0000002B00000020000000A9
:103FA00011680268006A530501D508700AE0D3055C
:103FB00001D5088006E0130603D5C217C1E9000247
:103FC00000E008600120704701694A1C026108781E
:103FD000704700B58FB0CDE9013100210591054949
:103FE0007944CDE903101146684600F029F90FB075
:103FF00000BD0000E5FFFFFF0A6802F8010B0A6040
:10400000704700002DE9FF5F15468A460446DFF839
:10401000AC80F8440027D8E900103E46CDE90010F6
:1040200010E03AF816106A4602A800F0A4FC411C01
:1040300007D02178890603D5E269391891420DD855
:104040000744761C2078800602D5E069B84205DD79
:10405000AE42E6DB3AF816000028E2D1A069C01BA8
:10406000A0612046FFF7FEFED8E90010CDE9001060
:10407000002017E03AF818106A4602A800F07BFC0E
:10408000B0F1FF3F81460BD000250DF1080B05E094
:10409000D4E901211BF8050090476D1C4D45F7D36D
:1040A00008F10100B0428046E4DB206A3844206217
:1040B0002046FFF7EDFEBDE8FF9F0000021600005E
:1040C0002DE9F0418046D21D22F007020025D2E9F9
:1040D0000002F52915A614D0011E72F1000106DABE
:1040E0000023D0EB030063EB020211A608E0D8F82E
:1040F00000108B0701D50FA602E0490701D50EA6D7
:1041000001251146002408F1240704E000F05CF9C1
:1041100030323A55641C50EA0102F7D12B46324640
:1041200021464046BDE8F04100F093B90000000090
:104130002D0000002B0000002000000030B4002102
:1041400000F1240408E002F00705D208303542EA05
:104150004372DB086554491C52EA0305F3D1046835
:10416000002310A2250708D504F020040C4304D036
:10417000C46901230CA2641EC46130BC00F069B99B
:1041800010B5044621461068FFF79CFE0246204603
:10419000BDE810400023D1E7D21D22F00701D1E98C
:1041A0000023CBE70000000030000000F0B40D4613
:1041B0000188090502D5214C7C4402E01F4C7C4457
:1041C0000E34002100F1240608E002F00F07120966
:1041D000E75D42EA03721B097754491C52EA030760
:1041E000F3D102780023120704D5702D06D009B14F
:1041F000022311342246F0BC00F02BB90123103405
:10420000F8E770B504460D4621461068FFF75AFEE0
:10421000024629462046BDE870400023C6E7D21D6D
:1042200022F00703D3E90023C0E70368126843F0D4
:10423000200303600823C3610023B7E76414000070
:104240002DE9F05F894604464FF0000ADFF874B1AB
:10425000FB44C0F820A02046E1688847002874D0BD
:10426000252806D0D4E901219047206A401C20620D
:10427000F1E700265F462046E1688847202805468A
:1042800007DB312D05D2781910F8200C08B1064350
:10429000F1E7B00701D526F00406C4F81CA00027FA
:1042A000C4F818A02A2D09D0284601F080F838B3A8
:1042B00004EB8708303DC8F8185019E059F8041B82
:1042C000204604EB87029161E1688847012F05468B
:1042D00018D1E069002820DA26F020061DE0D8F881
:1042E000180000EB800005EB40003038C8F81800DB
:1042F0002046E1688847054601F059F80028EED1CC
:10430000012F0AD02E2D08D12046E16888477F1C56
:104310000546022F46F02006C4DBA069002803DA18
:10432000404246F00106A061F00701D026F01006D9
:104330006C2D0BD0682D09D04C2D39D06A2D35D07D
:10434000742D35D07A2D33D016E038E0E1682F4651
:1043500020468847B842054609D16C2F26D04FF435
:104360008060E168064320468847054604E06C2FDC
:104370001AD04FF4807006430DB3A5F141001928FF
:1043800002D8203546F400664A4629462046266073
:104390004E46FBF707FF80B101280BD0F61D26F033
:1043A000070000F1080956E74020E4E78020D8E73D
:1043B0000020D6E706F104094DE7284652E7206AB7
:1043C000BDE8F09FF413000030B5B0F10A024FEAE7
:1043D000900E71F100034EEA817EB0EB0E0061EBAE
:1043E00091014FEA101E4EEA017E10EB0E0041EBE8
:1043F00011114FEA102E4EEA016E10EB0E0041EB48
:1044000011214FEA104E4EEA014E10EB0E0041EB27
:104410001141401841F100014FEAD00040EA4170DB
:104420004FEAD10110EB80054FEA810444EA907411
:1044300044EB01046D1944EB0404521BA3414FF0FB
:10444000000348BF0A3200D530BD401C41F10001D5
:1044500030BD2DE9F0470D4699469246044600F1DD
:1044600024080168880604D5E06921F01001216064
:1044700000E00120A84201DD471B00E00027A16900
:104480007A1902EB0900081AA0612078C00602D44C
:104490002046FFF7E7FC002608E0D4E901211AF8DE
:1044A00006009047206A401C761C20624E45F4DBD3
:1044B0002078C0060AD52046FFF7D4FC06E0D4E9F0
:1044C000012130209047206A401C2062381EA7F14D
:1044D0000107F4DC07E0D4E9012118F80500904752
:1044E000206A401C2062281EA5F10105F3DC20464D
:1044F000FFF7CEFC2078000602D50220BDE8F08749
:104500000120FBE770472DE9FF4F0C461E464FF098
:10451000FF378BB0D2E90001DDF860800A908A464F
:10452000C1F30A5505B93D46002108464FF0000089
:10453000BAF1000F00F4400005DA00EB80004FF400
:10454000400101EA50004FEA9059B9F1010F00DD36
:10455000B9460A9850EA4A000ED044F61050A5F227
:10456000FF3545432F14B8F1000F1ED07542291EA8
:104570001EDDC9F100021CE0B8F1010F4FF0000090
:1045800001D0302103E0F24305E02154401CB04249
:10459000FBDB30460022002121540B99C1F8088032
:1045A000C1E900200FB0BDE8F08FBD1B6D1CDEE738
:1045B0004A4600DA694206A800F06EFA06AB93E8B4
:1045C000070003AB83E8070050460A9900F020FB80
:1045D0008DE80700A0F500501F3800900398002DCB
:1045E00009DD42F21F014A46084403A903906846C8
:1045F00000F07FFD08E0A0F500504A461F3803A9EF
:104600000390684600F089FD8DE807000004000C67
:1046100003D04FF0FF30410800E01046B8F1000F22
:1046200003D00022009215461EE0751E05D4FFF748
:10463000CBFE303262556D1EF9D5B34601220843D8
:1046400002D000227F1C04E02078302801D1002213
:104650007F1E002A099786D01DE0112D07DAFFF78B
:10466000B3FE303262556D1C50EA0102F5D10843A9
:1046700002D00098C8B10EE00021681E05E0235C5E
:10468000625C63542254401E491C8142F7DBAB46F6
:10469000A81B401E0990002004F80B000B98099AF3
:1046A000C0F80880C0E9002B7CE711264FF0000815
:1046B00059E72DE9F04F88460446D21D22F0070144
:1046C00091B0D1E90001CDE90A0100F05CFE02469B
:1046D0000B98C00F01D02D2007E02068810701D57D
:1046E0002B2002E0202101EAC000032A099001D01A
:1046F000072A05DB03464146204600F08DF90BE111
:104700002078800601D5E06900E00620B8F1650F49
:10471000814606D0B8F1660F18D0B8F1670F70D196
:1047200031E00020B9F1110F009001DB112301E00D
:1047300009F101030AAA01A90CA8FFF7E4FEDDE9CB
:104740000C70002609F10105834647E001204B4625
:1047500000904FF000470AAA01A90CA8FFF7D3FE6A
:10476000DDE90DB00C995D46002610B909F1010094
:104770000D18B9EB050003D4C0F1FF3609F10105AE
:10478000A5EB09002BE0B9F1010F01DA4FF00109A7
:104790000020B9F1110F0090484601DD112300E01F
:1047A00003460AAA01A90CA8FFF7ADFEDDE90C70CB
:1047B0004D4600268346207800070AD4AB4500DA30
:1047C0005D4601A8012D04DD411911F8011C3029B5
:1047D00007D04F4502DA17F1040F04DA01208246B0
:1047E0000FE06D1EEEE7002F02DCED1B3E4403E000
:1047F000781CA84200DD7D1CB81B00F1010A4FF0B7
:1048000000472078000703D4AA4501DB4FF0FF3AA8
:104810000021B7F1004F0DF143088DF8431024D06B
:1048200002202B23002F01DA7F422D230A21021EB2
:10483000A0F1010000DC5FB197FBF1FC97FBF1F206
:1048400001FB1C7C17460CF1300C08F801CDEEE79B
:10485000A8F1010003702188090501D5452100E078
:104860006521A0F1010800F8011C09980FA9A1EB2E
:104870000807FF1D00B10120411901EBEA70A16991
:104880003844081A401EA0612078C00602D4204691
:10489000FFF7E8FA099828B1D4E901219047206A86
:1048A000401C20622078C00622D52046FFF7DAFAA5
:1048B0001EE0002E04DBB34502DD01A8805D00E0B0
:1048C0003020D4E901219047206A401C2062761CE8
:1048D000AAF101005FEA000A0AD100F099F8C06865
:1048E0000168405CD4E901219047206A401C2062A5
:1048F000281EA5F10105DCDC07E0D4E9012118F848
:10490000010B9047206A401C2062381EA7F1010766
:10491000F3DC2046FFF7BCFA032011B043E610B5E4
:10492000436913B1AFF3008001E0FFF7D4FA01202F
:1049300010BD127800F124010A7000224A70012291
:10494000EDE711684FF0FF32E9E710B5436913B1A5
:10495000AFF3008001E0FFF755FB012010BD128886
:1049600000F1240182840022C2840122EDE7116853
:104970004FF0FF32E9E770B516460C46054600F0E9
:104980003FF8036893F80101012806D0FF2C0FD8E7
:10499000185D68B101202C7070BDD3F80701324654
:1049A000214603F2071303442846BDE87040184728
:1049B0004FF0FF3070BD754600F0E6F8AE460500DA
:1049C0006946534620F00700854618B020B5FDF72C
:1049D0003BFCBDE820404FF000064FF000074FF0D1
:1049E00000084FF0000B21F00701AC46ACE8C0090D
:1049F000ACE8C009ACE8C009ACE8C0098D46704716
:104A000010B500F005F8001D10BD00BFDD09000065
:104A100000487047D80100202DE9F0411F460446A8
:104A200003260168072A01F4006004DB08B116A51B
:104A300005E016A503E008B115A500E015A521F0D5
:104A400010002060A069C01EA0610FB1401EA061CF
:104A50002046FFF707FA4FB1D4E9012138469047C5
:104A6000206A401C2062C01C206206E0206AFAE72F
:104A7000D4E9012115F8010B9047761EF8D22046A3
:104A8000FFF706FABDE8F0814E414E006E616E0000
:104A9000494E4600696E66002DE9F047814616468C
:104AA0008AB0334878440DC88DE80D00304878440A
:104AB000801C03AC0DC884E80D0041F69B3008440F
:104AC000372190FBF1F290FBF1F5A5F1800501FB98
:104AD00012041B3C02D56442012000E00020DFF8F4
:104AE00090A080460027FA44AAF1BE0A0DE0E00734
:104AF00009D03246684607EB47010AEB810100F016
:104B00000CFB8DE8070064107F1C002CEFD1184FC0
:104B10007F44AC3F18E0E80714D007EB04100DF118
:104B2000180A90E80E008AE80E00C068F04201D131
:104B300098190890324606A903A800F0EEFA03ABD4
:104B400083E807006D10641C002DE4D132466946ED
:104B5000B8F1000F03A802D000F0CBFA01E000F09A
:104B6000DCFAC9E90001C9F808200AB0BDE8F087FD
:104B7000300C000010B50446AFF300802046BDE8BD
:104B80001040FBF772BB000000487047B8010020DE
:104B90004FF0013C50F8042B51F8043B9A4221D1CC
:104BA000A2EB0C03934313EACC1317D150F8042B58
:104BB00051F8043B9A4215D1A2EB0C03934313EA3C
:104BC000CC130BD150F8042B51F8043B9A4209D175
:104BD000A2EB0C03934313EACC13DBD04FF000009D
:104BE000704700BFD01A01BAB1FA81F101F0180183
:104BF00022FA01F0CB40C1F12001DBB2C0B2C01AF1
:104C00002CFA01F3D11A914311EAC311E6D170478E
:104C10005FEA400C08BF91F0000F4FEA8C234FEA87
:104C2000C12243EA51514FEA1C5018BF00F5F04031
:104C30004FEA300018BF41F000415FEA6C5C00F0C1
:104C40002980BCF1FF3F08BF40F080407047130C43
:104C500006BF12044FF0100C4FF0000C130E04BFEF
:104C600012020CF1080C130F04BF12010CF1040C1A
:104C7000930F04BF92000CF1020CD30F04BF52003B
:104C80000CF1010C11464FF00002A0F11F00A0EB47
:104C90000C00704711F0004F08BF704731F0004121
:104CA0003FF4D5AF0B0C06BF09044FF0100C4FF0CA
:104CB000000C0B0E04BF09020CF1080C0B0F04BF13
:104CC00009010CF1040C8B0F04BF89000CF1020CDC
:104CD000CB0F04BF49000CF1010CCCF12003A0EB79
:104CE0000C0022FA03F302FA0CF241EA030100F18C
:104CF0000100704720F07F4C80EA030023F07F47DB
:104D0000ACEB070303F57C5300F0004003F1FF0315
:104D10002DE980494FEA154B09B44FEA144325EABF
:104D20000B4E24EA03480FF2042606EB132749082A
:104D30003E785FEA320203FB0667C7F5000707FB10
:104D400006F64FEA54374FEAD64606F1020607FB4D
:104D5000066CCCF1005C4FEA1C472CEA074C07FBC1
:104D600006F40CFB06F504EB15464FEA961634BF25
:104D700000204FF000404FEAD13706FB07FC4FEA16
:104D80001C4C0CFB0BF7D21B03FB0CF761EB070170
:104D90000CFB0EF7B0EB074072EB17420CFB08F769
:104DA00034BFA2EB0742B2EB074261EB17414FEA77
:104DB0000C444FEA910706FB07FC4FEA1C4C0CFB26
:104DC0000BF7B0EBC74072EB573203FB0CF734BF65
:104DD000A2EBC742B2EBC74261EB57310CFB0EF7B7
:104DE000B0EBC70072EB57720CFB08F734BFA2EBB5
:104DF000C702B2EBC70261EB5771039F4FEA8161B3
:104E000041EA921104EBCC044FEAD1374FEA8262B7
:104E100006FB07FC42EA90124FEA80604FEA1C4C06
:104E20000CFB0BF7D21B03FB0CF761EB07010CFB30
:104E30000EF7B0EB074072EB17420CFB08F734BFDC
:104E4000A2EB0742B2EB074261EB17414FEA8C55E8
:104E50004FEA910704EB9C2406FB07FC4FEA1C4C2D
:104E60000CFB0BF7B0EBC74072EB573203FB0CF7B0
:104E700034BFA2EBC742B2EBC74261EB57310CFB28
:104E80000EF7B0EBC70072EB57720CFB08F734BF9C
:104E9000A2EBC702B2EBC70261EB577115EB4C25D1
:104EA0004FEA816141EA92114FEA82624FEAD137BB
:104EB00042EA901206FB07FC44F100044FEA8060CE
:104EC0004FEA1C4C0CFB0BF7D21B03FB0CF761EBFE
:104ED00007010CFB0EF7B0EB074072EB17420CFB1F
:104EE00008F734BFA2EB0742B2EB074261EB174170
:104EF00015EB1C154FEA813141EA92414FEA8232AB
:104F000042EA90424FEA80304FEA0C7644F10004C6
:104F100048EA03434EEA0B484FF0000EB2EB080C90
:104F200071EB030724BF624639464EEB0E0E4FF07D
:104F3000000B0018524149414BEB0B0BB2EB080C34
:104F400071EB03077BF1000B24BF624639464EEB41
:104F50000E0E4FF0000B0018524149414BEB0B0B6A
:104F6000B2EB080C71EB03077BF1000B24BF624628
:104F700039464EEB0E0E51EA020718BF46F0010605
:104F800016EB0E7655F1000254F1000103D5BDE891
:104F90008901BDE80088BDE88901BDE80048B6196F
:104FA000524141EB0101A3F10103704780807F7EF4
:104FB0007D7C7B7A7978777676757473727171708F
:104FC0006F6E6E6D6C6C6B6A6A6968686766666541
:104FD0006464636362616160605F5F5E5E5D5D5CCF
:104FE0005C5B5B5A5A595958585757565655555540
:104FF0005454535352525251515050504F4F4F4EA0
:105000004E4D4D4D4C4C4C4B4B4B4A4A4A494949ED
:10501000484848474747474646464545454444442F
:10502000444343434342424242414141002B26D440
:10503000770021D01CB54FEA370703B44FF01000BA
:105040004FF010014FF000000FBCBDE810400BF115
:10505000010BBBF1010F08BF5FEA170722BF12F176
:10506000010211F101014FF0004143F1000300F092
:10507000004043EA00007047F9D35708DAE746EAF0
:10508000064613F1400F4FEA16461FDD13F1200FBD
:10509000DFBF16430A46002120335B42C8D0C3F16C
:1050A000200746EA064602FA07F74FEA164646EA9E
:1050B0000706C3F1200722FA03F201FA07F721FAE3
:1050C00003F14FF0000342EA0702B1E746EA0206A5
:1050D00046EA06464FEA164646EA0106BCBF46EADD
:1050E0000646360C4FF000034FF000024FF000016F
:1050F0009EE72DE9C048934630B491E8380007C8D0
:1051000031EA400C48BF34EA430C03D5FFF7F2FD07
:10511000FFF78CFFF0BCBDE800882DE9C04893463E
:1051200030B491E8380007C810F0804F08BF13F082
:10513000804F03D100F005F8FFF778FFF0BCBDE821
:10514000008820F07F4780EA030023F07F4C07EBC4
:105150000C03A3F57C5300F00040A3F1FE0392F092
:10516000000F00F0B38095F0000F00F077802DE97C
:1051700001494FEA11404FEA144621EA004800FB7A
:1051800006FC24EA064708FB06F607FB08F800FBC6
:1051900007F718EB06484CEB164C4FEA124B18EB8E
:1051A00007484FEA15464CEB174022EA0B4E0BFB23
:1051B00006FC25EA06470EFB06F607FB0EFE0BFB78
:1051C00007F71EEB064E4CEB164C4FF000061EEB9D
:1051D000074E4CEB174B18EB0B0840F1000018EB97
:1051E0000E0B58EB000840F100008F1A4FF0000141
:1051F0003CBFC943661B14BFB5EB040C00213CBF88
:10520000C943F61B4FEA17444EEA8E0E27EA0445BF
:105210004FEA1C4704FB07622CEA074C05FB07F723
:105220000CFB05F604FB0CFC16EB074642EB1742A1
:1052300016EB0C4642EB1C421BEB060658EB020237
:10524000414146EA9E0601D5BDE80189B6195241A1
:1052500041EB0101A3F10103BDE801894FEA1445C7
:105260004FEA114724EA054621EA074C05FB07F4FB
:1052700006FB07F70CFB06F105FB0CFC11EB0741E5
:1052800044EB17444FEA124711EB0C4144EB1C442A
:1052900022EA074C05FB07F206FB07F70CFB06F6B4
:1052A00005FB0CFC16EB074642EB174216EB0C46CF
:1052B00042EB1C456A1854F1000148BF7047B6190B
:1052C000524141EB0101A3F10103704795F0000F3A
:1052D00037D04FEA11424FEA144721EA024624EA46
:1052E000074C02FB07F106FB07F70CFB06F402FB79
:1052F0000CFC14EB074441EB17414FEA154714EB44
:105300000C4441EB1C4125EA074C02FB07F506FB68
:1053100007F70CFB06F602FB0CFC16EB074645EB09
:10532000174516EB0C4645EB1C42121951F10001D2
:1053300048BF7047B619524141EB0101A3F1010387
:1053400070474FEA14454FEA114724EA054621EA1F
:10535000074C05FB07F106FB07F70CFB06F24FF0C5
:10536000000605FB0CFC12EB074241EB174112EB68
:105370000C4251EB1C4148BF7047921841EB0101B0
:10538000A3F101037047490050EAC12018BF04206F
:105390004A0D18BF40F0010040F2FF72B2EB515FBE
:1053A00008BF40F00200012808BF052070473038D0
:1053B0000A2801D2012070470020704710B500294B
:1053C0000AD00878002807D005487844FFF7E0FBAA
:1053D000002801D0002010BD0248784410BD000014
:1053E000460300003E03000010B500290AD00878EB
:1053F000002807D005487844FFF7CAFB002801D0F1
:10540000002010BD0248784410BD000036030000A3
:105410002E030000C10DD1F19E0206DB4FEA0023EE
:1054200043F0004323FA02F07047004207D54FEAE9
:105430004001B1F1FE4F02D24FF00000704710B5AD
:1054400000F09DF849922480002070476FEA200008
:1054500070470000B0FA80F310FA03F2C3F19D0325
:105460000AD0D90501EB1220530638BF704700F16E
:10547000010008BF20F00100704700004FF47F0CCE
:105480001CEAD0121EBF1CEAD11392EA0C0F93EA59
:105490000C0F00F0478090EA010F48BF42F4807281
:1054A0004FF0004C4CEA00204CEA012102EB0302D1
:1054B000A0FB0113A2F50002002918BF43F001036D
:1054C0005B0028BF4FEA330342EB22425FEA132C12
:1054D0004CEBC2502EBFBCEB436FB2F57C0F704754
:1054E0004FEA036CBCF1004F08BF20F00100B2F599
:1054F0007C0F38BF70470BD582F0FF0212F5803F5A
:10550000C8BF704700F1C040D8BF00F000407047EE
:1055100000F5000C5FEA4C0C48BF7047B0F1C0408A
:1055200000F073B890EA010F0CEAD11348BF42F4BF
:105530008072624538BF634504D280EA010000F002
:105540000040704710B500F01AF800BF8900013E16
:1055500000F007B800F009B85FEA410C5FEA1C6C84
:1055600008D080EA010000F050B85FEA400C5FEA22
:105570001C6CF6D14FF00040A0F5800070470EF192
:10558000020E2EF0030E5EF8044B244204D44FEAC0
:105590004102B2F17F4F11D84FEA4003B3F17F4F80
:1055A0000CD80ED14FEAD07CB2F17F4F0CEB4C0CF3
:1055B0000CF1020C08BF4CEBD17C04E04FF0080C5E
:1055C00001E04FEAD17C0CEB4C0324FA03F404F025
:1055D0000704B4F1040C06D20EEB840CBDE81040B5
:1055E0004CF0010C6047DFE80CF0070802024FF0B6
:1055F0000040A0F5800010BD0846420018BFD2F15F
:10560000807288BF00F0004010BDFF2141EAD050F9
:10561000C0057047FFF74DB8000000000000000013
:1056200030313233343536373839414243444546D8
:1056300040305800303132333435363738396162D2
:1056400063646566403078000400000800000000D4
:1056500000000002000100001000000002400000F5
:10566000000000A00000000005400000000000C88D
:10567000000000000C4000000000409C0000000002
:10568000194000000020BCBE0000000034400000B3
:10569000BFC91B8E00000004B5400000504BCFD0A6
:1056A0006607E2CF010000006C4100003E8251AA73
:1056B000DFEEA73401000000D9420000DCB5A0E213
:1056C0003A301F97FFFFFFFFB4450000FD25A0C83B
:1056D000E9A3C14FFFFFFFFFFF3F00000000008074
:1056E00000000000FF3F00000000008000000000FC
:1056F0003C58000800000020FC0000006C0100087D
:1057000038590008FC0000201C0700008801000830
:105710001C00000043000000F8FFFFFF0C00000029
:105720000E0000000F0000002E000000100100001D
:1057300043000000F8FFFFFF004040404040404071
:105740004040414141414140404040404040404054
:1057500040404040404040404005020202020202F8
:105760000202020202020202022020202020202047
:10577000202020020202020202029090909090905B
:105780001010101010101010101010101010101019
:10579000101010100202020202028888888888888D
:1057A0000808080808080808080808080808080879
:1057B0000808080802020202400000000000000081
:1057C00000000000000000000000000000000000D9
:1057D00000000000000000000000000000000000C9
:1057E00000000000000000000000000000000000B9
:1057F00000000000000000000000000000000000A9
:105800000000000000000000000000000000000098
:105810000000000000000000000000000000000088
:105820000000000000000000000000000000000078
:105830000000000000000000000000000000000068
:10584000000000000000000031302D3231205733BD
:105850000030303A30303A303000000000000000B4
:105860000000000000000000000000000000000038
:105870000000000000000000000000000000000028
:1058800000A24A040000000000000000010203041E
:1058900006070809000000001F0000001C000000AF
:1058A0001F0000001E0000001F0000001E0000007E
:1058B0001F0000001F0000001E0000001F0000006D
:1058C0001E0000001F0000000000000030303A30D1
:1058D000303A3030323031332F31302F32302037C0
:1058E0005700000000000000000000000000000061
:1058F0001F0000001C0000001F0000001E00000030
:105900001F0000001E0000001F0000001F0000001C
:105910001E0000001F0000001E0000001F0000000D
:10592000000000000001020304010203040607084E
:08593000090204060800000052
:0400000508000131BD
:00000001FF
